{
  "contractName": "NotGivingEthToken",
  "abi": [
    {
      "constant": true,
      "inputs": [],
      "name": "owner",
      "outputs": [
        {
          "name": "",
          "type": "address"
        }
      ],
      "payable": false,
      "stateMutability": "view",
      "type": "function"
    },
    {
      "constant": true,
      "inputs": [
        {
          "name": "",
          "type": "address"
        }
      ],
      "name": "lastBlock",
      "outputs": [
        {
          "name": "",
          "type": "uint256"
        }
      ],
      "payable": false,
      "stateMutability": "view",
      "type": "function"
    },
    {
      "anonymous": false,
      "inputs": [
        {
          "indexed": true,
          "name": "_sellto",
          "type": "address"
        },
        {
          "indexed": false,
          "name": "_value",
          "type": "uint256"
        }
      ],
      "name": "TransferWhiteCoin",
      "type": "event"
    },
    {
      "anonymous": false,
      "inputs": [
        {
          "indexed": true,
          "name": "_victim",
          "type": "address"
        },
        {
          "indexed": true,
          "name": "_spammer",
          "type": "address"
        },
        {
          "indexed": false,
          "name": "_value",
          "type": "uint256"
        }
      ],
      "name": "Spot",
      "type": "event"
    },
    {
      "anonymous": false,
      "inputs": [
        {
          "indexed": true,
          "name": "_owner",
          "type": "address"
        }
      ],
      "name": "BalanceOf",
      "type": "event"
    },
    {
      "anonymous": false,
      "inputs": [
        {
          "indexed": true,
          "name": "_owner",
          "type": "address"
        }
      ],
      "name": "BalanceOfWhite",
      "type": "event"
    },
    {
      "anonymous": false,
      "inputs": [
        {
          "indexed": false,
          "name": "victim",
          "type": "address"
        },
        {
          "indexed": false,
          "name": "spammer",
          "type": "address"
        },
        {
          "indexed": false,
          "name": "value",
          "type": "uint256"
        }
      ],
      "name": "SpottedSpam",
      "type": "event"
    },
    {
      "constant": false,
      "inputs": [
        {
          "name": "_sellto",
          "type": "address"
        },
        {
          "name": "_value",
          "type": "uint256"
        }
      ],
      "name": "transferWhiteCoin",
      "outputs": [],
      "payable": false,
      "stateMutability": "nonpayable",
      "type": "function"
    },
    {
      "constant": false,
      "inputs": [
        {
          "name": "_victim",
          "type": "address"
        },
        {
          "name": "_spammer",
          "type": "address"
        },
        {
          "name": "_value",
          "type": "uint256"
        }
      ],
      "name": "spot",
      "outputs": [],
      "payable": false,
      "stateMutability": "nonpayable",
      "type": "function"
    },
    {
      "constant": false,
      "inputs": [
        {
          "name": "_owner",
          "type": "address"
        }
      ],
      "name": "balanceOf",
      "outputs": [
        {
          "name": "balance",
          "type": "uint256"
        }
      ],
      "payable": false,
      "stateMutability": "nonpayable",
      "type": "function"
    },
    {
      "constant": false,
      "inputs": [
        {
          "name": "_owner",
          "type": "address"
        }
      ],
      "name": "balanceOfWhite",
      "outputs": [
        {
          "name": "balance",
          "type": "uint256"
        }
      ],
      "payable": false,
      "stateMutability": "nonpayable",
      "type": "function"
    },
    {
      "constant": false,
      "inputs": [],
      "name": "getBN",
      "outputs": [
        {
          "name": "",
          "type": "uint256"
        }
      ],
      "payable": false,
      "stateMutability": "nonpayable",
      "type": "function"
    }
  ],
  "bytecode": "0x6080604052336000806101000a81548173ffffffffffffffffffffffffffffffffffffffff021916908373ffffffffffffffffffffffffffffffffffffffff16021790555034801561005057600080fd5b50610f64806100606000396000f300608060405260043610610083576000357c0100000000000000000000000000000000000000000000000000000000900463ffffffff1680634cb202131461008857806370a08231146100f55780638da5cb5b1461014c57806390c7bc5f146101a3578063952ca92c146101ce578063ce07632714610225578063cedca41b1461027c575b600080fd5b34801561009457600080fd5b506100f3600480360381019080803573ffffffffffffffffffffffffffffffffffffffff169060200190929190803573ffffffffffffffffffffffffffffffffffffffff169060200190929190803590602001909291905050506102c9565b005b34801561010157600080fd5b50610136600480360381019080803573ffffffffffffffffffffffffffffffffffffffff1690602001909291905050506108a4565b6040518082815260200191505060405180910390f35b34801561015857600080fd5b506101616109fa565b604051808273ffffffffffffffffffffffffffffffffffffffff1673ffffffffffffffffffffffffffffffffffffffff16815260200191505060405180910390f35b3480156101af57600080fd5b506101b8610a1f565b6040518082815260200191505060405180910390f35b3480156101da57600080fd5b5061020f600480360381019080803573ffffffffffffffffffffffffffffffffffffffff169060200190929190505050610a27565b6040518082815260200191505060405180910390f35b34801561023157600080fd5b50610266600480360381019080803573ffffffffffffffffffffffffffffffffffffffff169060200190929190505050610a3f565b6040518082815260200191505060405180910390f35b34801561028857600080fd5b506102c7600480360381019080803573ffffffffffffffffffffffffffffffffffffffff16906020019092919080359060200190929190505050610b95565b005b6000809054906101000a900473ffffffffffffffffffffffffffffffffffffffff1673ffffffffffffffffffffffffffffffffffffffff163373ffffffffffffffffffffffffffffffffffffffff1614151561038d576040517f08c379a00000000000000000000000000000000000000000000000000000000081526004018080602001828103825260188152602001807f596f7520617265206e6f7420746865204f776e6572212121000000000000000081525060200191505060405180910390fd5b600073ffffffffffffffffffffffffffffffffffffffff168373ffffffffffffffffffffffffffffffffffffffff1614151515610432576040517f08c379a000000000000000000000000000000000000000000000000000000000815260040180806020018281038252601b8152602001807f56696374696d2063616e6e6f742062652061646472657373283029000000000081525060200191505060405180910390fd5b600073ffffffffffffffffffffffffffffffffffffffff168273ffffffffffffffffffffffffffffffffffffffff16141515156104d7576040517f08c379a000000000000000000000000000000000000000000000000000000000815260040180806020018281038252601c8152602001807f5370616d6d65722063616e6e6f7420626520616464726573732830290000000081525060200191505060405180910390fd5b6000600360008573ffffffffffffffffffffffffffffffffffffffff1673ffffffffffffffffffffffffffffffffffffffff168152602001908152602001600020541415156105ea57436105746005600360008773ffffffffffffffffffffffffffffffffffffffff1673ffffffffffffffffffffffffffffffffffffffff16815260200190815260200160002054610ecb90919063ffffffff16565b1015156105e9576040517f08c379a000000000000000000000000000000000000000000000000000000000815260040180806020018281038252601b8152602001807f416c6c6f776564206f6e6c79206576657279203520626c6f636b73000000000081525060200191505060405180910390fd5b5b8173ffffffffffffffffffffffffffffffffffffffff168373ffffffffffffffffffffffffffffffffffffffff1614156106cb57610683600261067583600260008773ffffffffffffffffffffffffffffffffffffffff1673ffffffffffffffffffffffffffffffffffffffff16815260200190815260200160002054610ecb90919063ffffffff16565b610ee790919063ffffffff16565b600260008473ffffffffffffffffffffffffffffffffffffffff1673ffffffffffffffffffffffffffffffffffffffff168152602001908152602001600020819055506107f6565b61071d81600160008673ffffffffffffffffffffffffffffffffffffffff1673ffffffffffffffffffffffffffffffffffffffff16815260200190815260200160002054610ecb90919063ffffffff16565b600160008573ffffffffffffffffffffffffffffffffffffffff1673ffffffffffffffffffffffffffffffffffffffff168152602001908152602001600020819055506107b281600260008573ffffffffffffffffffffffffffffffffffffffff1673ffffffffffffffffffffffffffffffffffffffff16815260200190815260200160002054610ecb90919063ffffffff16565b600260008473ffffffffffffffffffffffffffffffffffffffff1673ffffffffffffffffffffffffffffffffffffffff168152602001908152602001600020819055505b43600360008573ffffffffffffffffffffffffffffffffffffffff1673ffffffffffffffffffffffffffffffffffffffff168152602001908152602001600020819055508173ffffffffffffffffffffffffffffffffffffffff168373ffffffffffffffffffffffffffffffffffffffff167f38192a1f71b30beac2b5eac286b115487e5bdf9734dba7475e8e8c05a54d9097836040518082815260200191505060405180910390a3505050565b60008073ffffffffffffffffffffffffffffffffffffffff168273ffffffffffffffffffffffffffffffffffffffff1614151515610970576040517f08c379a00000000000000000000000000000000000000000000000000000000081526004018080602001828103825260258152602001807f42616c616e6365206f662061646472657373283029206973206e6f7420706f7381526020017f7369626c6500000000000000000000000000000000000000000000000000000081525060400191505060405180910390fd5b8173ffffffffffffffffffffffffffffffffffffffff167fd996788951f1f44b7a7523f1f9a9ebfbcb1e816dc7a6bd17b8930da3cd13984260405160405180910390a2600260008373ffffffffffffffffffffffffffffffffffffffff1673ffffffffffffffffffffffffffffffffffffffff168152602001908152602001600020549050919050565b6000809054906101000a900473ffffffffffffffffffffffffffffffffffffffff1681565b600043905090565b60036020528060005260406000206000915090505481565b60008073ffffffffffffffffffffffffffffffffffffffff168273ffffffffffffffffffffffffffffffffffffffff1614151515610b0b576040517f08c379a00000000000000000000000000000000000000000000000000000000081526004018080602001828103825260258152602001807f42616c616e6365206f662061646472657373283029206973206e6f7420706f7381526020017f7369626c6500000000000000000000000000000000000000000000000000000081525060400191505060405180910390fd5b8173ffffffffffffffffffffffffffffffffffffffff167f4109acafb8752a9e0f3faaffb4ffc773e497667f94b4d9bc37c758cda785152560405160405180910390a2600160008373ffffffffffffffffffffffffffffffffffffffff1673ffffffffffffffffffffffffffffffffffffffff168152602001908152602001600020549050919050565b80600160003373ffffffffffffffffffffffffffffffffffffffff1673ffffffffffffffffffffffffffffffffffffffff1681526020019081526020016000205410151515610c72576040517f08c379a00000000000000000000000000000000000000000000000000000000081526004018080602001828103825260218152602001807f4e6f742073756666696369656e7420576869746520636f696e20746f2073656c81526020017f6c0000000000000000000000000000000000000000000000000000000000000081525060400191505060405180910390fd5b80600260008473ffffffffffffffffffffffffffffffffffffffff1673ffffffffffffffffffffffffffffffffffffffff1681526020019081526020016000205410151515610d4f576040517f08c379a000000000000000000000000000000000000000000000000000000000815260040180806020018281038252602f8152602001807f4e6f742073756666696369656e7420426c61636b20636f696e20746f2072656381526020017f6569766520576869746520636f696e000000000000000000000000000000000081525060400191505060405180910390fd5b610da181600160003373ffffffffffffffffffffffffffffffffffffffff1673ffffffffffffffffffffffffffffffffffffffff16815260200190815260200160002054610f1f90919063ffffffff16565b600160003373ffffffffffffffffffffffffffffffffffffffff1673ffffffffffffffffffffffffffffffffffffffff16815260200190815260200160002081905550610e3681600260008573ffffffffffffffffffffffffffffffffffffffff1673ffffffffffffffffffffffffffffffffffffffff16815260200190815260200160002054610f1f90919063ffffffff16565b600260008473ffffffffffffffffffffffffffffffffffffffff1673ffffffffffffffffffffffffffffffffffffffff168152602001908152602001600020819055508173ffffffffffffffffffffffffffffffffffffffff167f565bf6a306768d86406bc33aa75aa65f03f8a413d0c6593ff54ca0175fb20f05826040518082815260200191505060405180910390a25050565b60008183019050828110151515610ede57fe5b80905092915050565b600080831415610efa5760009050610f19565b8183029050818382811515610f0b57fe5b04141515610f1557fe5b8090505b92915050565b6000828211151515610f2d57fe5b8183039050929150505600a165627a7a7230582087be30dfadeaf50d200ebfb59e827cf5f40805b4d21e10a1b71244716185c8320029",
  "source": "pragma solidity ^0.4.24;\n\nimport './NotgivingEth_interface.sol';\nimport './SafeMath.sol';\n\ncontract NotGivingEthToken is NotGivingEthInterface {\n    using SafeMath for uint;\n\n    address public owner = msg.sender;\n\n    mapping(address => uint) private whiteBalance;\n    mapping(address => uint) private blackBalance;\n    mapping(address => uint) public lastBlock;\n\n    event TransferWhiteCoin(address indexed _sellto, uint _value);\n    event Spot(address indexed _victim, address indexed _spammer, uint _value);\n    event BalanceOf(address indexed _owner);\n    event BalanceOfWhite(address indexed _owner);\n    \n    //this will be called by owner, in our case trading ui\n    function transferWhiteCoin(address _sellto, uint _value) public {\n      //Burn white token of sellfrom\n      //Burn Black Token of sellTo\n      require(whiteBalance[msg.sender] >= _value ,\"Not sufficient White coin to sell\");\n      require(blackBalance[_sellto] >= _value ,\"Not sufficient Black coin to receive White coin\");\n      whiteBalance[msg.sender] = whiteBalance[msg.sender].sub(_value);\n      blackBalance[_sellto] = blackBalance[_sellto].sub(_value);\n      \n      emit TransferWhiteCoin(_sellto, _value);\n    }\n\n    //only owner can call, called from dapp\n    function spot(address _victim, address _spammer, uint _value) public {\n        require(msg.sender == owner,\"You are not the Owner!!!\");\n        \n        require(_victim != address(0),\"Victim cannot be address(0)\");\n        require(_spammer != address(0),\"Spammer cannot be address(0)\");\n        \n        if(lastBlock[_victim] != 0) {\n            //dont allow to spot transaction for 5000 block passed\n            require(lastBlock[_victim].add(5) < block.number,\"Allowed only every 5 blocks\");\n            //require(lastBlock[_victim].add(5000) < block.number,\"Allowed only every 5000 blocks\");\n        }\n        \n        if(_victim == _spammer) {\n            blackBalance[_spammer] = blackBalance[_spammer].add(_value).mul(2);\n        } else {\n            whiteBalance[_victim] = whiteBalance[_victim].add(_value);\n            blackBalance[_spammer] = blackBalance[_spammer].add(_value);    \n        }\n        \n        lastBlock[_victim] = block.number;\n        \n        emit Spot(_victim, _spammer, _value);\n    }\n\n    // send balance of black token, for wallets\n    function balanceOf(address _owner) public returns (uint balance) {\n        require(_owner != address(0),\"Balance of address(0) is not possible\");\n        \n        emit BalanceOf(_owner);\n        \n        return blackBalance[_owner];\n    }\n\n    // send balance of while token, for dapp\n    function balanceOfWhite(address _owner) public returns (uint balance) {\n        require(_owner != address(0),\"Balance of address(0) is not possible\");\n        \n        emit BalanceOfWhite(_owner);\n        \n        return whiteBalance[_owner];\n    }\n    \n    function getBN() returns(uint) {\n        return block.number;\n    }\n}\n",
  "sourcePath": "/Users/nickyg/Documents/workspace/src/github.com/niktrix/notgivingeth/contracts/NotGivingEthToken.sol",
  "compiler": {
    "name": "solc",
    "version": "0.4.24+commit.e67f0147.Emscripten.clang"
  },
  "schemaVersion": "2.0.1",
  "updatedAt": "2018-07-13T19:49:16.687Z"
}