{
  "contractName": "NotGivingEthToken",
  "abi": [
    {
      "constant": true,
      "inputs": [],
      "name": "totalSupply",
      "outputs": [
        {
          "name": "",
          "type": "uint256"
        }
      ],
      "payable": false,
      "stateMutability": "view",
      "type": "function"
    },
    {
      "constant": true,
      "inputs": [],
      "name": "owner",
      "outputs": [
        {
          "name": "",
          "type": "address"
        }
      ],
      "payable": false,
      "stateMutability": "view",
      "type": "function"
    },
    {
      "anonymous": false,
      "inputs": [
        {
          "indexed": false,
          "name": "victim",
          "type": "address"
        },
        {
          "indexed": false,
          "name": "spammer",
          "type": "address"
        },
        {
          "indexed": false,
          "name": "value",
          "type": "uint256"
        }
      ],
      "name": "SpottedSpam",
      "type": "event"
    },
    {
      "constant": false,
      "inputs": [
        {
          "name": "_sellto",
          "type": "address"
        },
        {
          "name": "_value",
          "type": "uint256"
        }
      ],
      "name": "transferWhiteCoin",
      "outputs": [],
      "payable": false,
      "stateMutability": "nonpayable",
      "type": "function"
    },
    {
      "constant": false,
      "inputs": [
        {
          "name": "_victim",
          "type": "address"
        },
        {
          "name": "_spammer",
          "type": "address"
        },
        {
          "name": "_value",
          "type": "uint256"
        }
      ],
      "name": "spot",
      "outputs": [],
      "payable": false,
      "stateMutability": "nonpayable",
      "type": "function"
    },
    {
      "constant": true,
      "inputs": [
        {
          "name": "_owner",
          "type": "address"
        }
      ],
      "name": "balanceOf",
      "outputs": [
        {
          "name": "balance",
          "type": "uint256"
        }
      ],
      "payable": false,
      "stateMutability": "view",
      "type": "function"
    },
    {
      "constant": true,
      "inputs": [
        {
          "name": "_owner",
          "type": "address"
        }
      ],
      "name": "balanceOfWhite",
      "outputs": [
        {
          "name": "balance",
          "type": "uint256"
        }
      ],
      "payable": false,
      "stateMutability": "view",
      "type": "function"
    }
  ],
  "bytecode": "0x608060405233600160006101000a81548173ffffffffffffffffffffffffffffffffffffffff021916908373ffffffffffffffffffffffffffffffffffffffff16021790555034801561005157600080fd5b506108a9806100616000396000f300608060405260043610610078576000357c0100000000000000000000000000000000000000000000000000000000900463ffffffff16806318160ddd1461007d5780634cb20213146100a857806370a08231146101155780638da5cb5b1461016c578063ce076327146101c3578063cedca41b1461021a575b600080fd5b34801561008957600080fd5b50610092610267565b6040518082815260200191505060405180910390f35b3480156100b457600080fd5b50610113600480360381019080803573ffffffffffffffffffffffffffffffffffffffff169060200190929190803573ffffffffffffffffffffffffffffffffffffffff1690602001909291908035906020019092919050505061026d565b005b34801561012157600080fd5b50610156600480360381019080803573ffffffffffffffffffffffffffffffffffffffff169060200190929190505050610497565b6040518082815260200191505060405180910390f35b34801561017857600080fd5b506101816104e0565b604051808273ffffffffffffffffffffffffffffffffffffffff1673ffffffffffffffffffffffffffffffffffffffff16815260200191505060405180910390f35b3480156101cf57600080fd5b50610204600480360381019080803573ffffffffffffffffffffffffffffffffffffffff169060200190929190505050610506565b6040518082815260200191505060405180910390f35b34801561022657600080fd5b50610265600480360381019080803573ffffffffffffffffffffffffffffffffffffffff1690602001909291908035906020019092919050505061054f565b005b60005481565b600160009054906101000a900473ffffffffffffffffffffffffffffffffffffffff1673ffffffffffffffffffffffffffffffffffffffff163373ffffffffffffffffffffffffffffffffffffffff161415156102c957600080fd5b61031b81600260008673ffffffffffffffffffffffffffffffffffffffff1673ffffffffffffffffffffffffffffffffffffffff1681526020019081526020016000205461083790919063ffffffff16565b600260008573ffffffffffffffffffffffffffffffffffffffff1673ffffffffffffffffffffffffffffffffffffffff168152602001908152602001600020819055506103b081600360008573ffffffffffffffffffffffffffffffffffffffff1673ffffffffffffffffffffffffffffffffffffffff1681526020019081526020016000205461083790919063ffffffff16565b600360008473ffffffffffffffffffffffffffffffffffffffff1673ffffffffffffffffffffffffffffffffffffffff168152602001908152602001600020819055507fa2503cab2ad8a98935c823b580c4b982444a1f98e6cff18b8ae4779b44c2c39b838383604051808473ffffffffffffffffffffffffffffffffffffffff1673ffffffffffffffffffffffffffffffffffffffff1681526020018373ffffffffffffffffffffffffffffffffffffffff1673ffffffffffffffffffffffffffffffffffffffff168152602001828152602001935050505060405180910390a1505050565b6000600360008373ffffffffffffffffffffffffffffffffffffffff1673ffffffffffffffffffffffffffffffffffffffff168152602001908152602001600020549050919050565b600160009054906101000a900473ffffffffffffffffffffffffffffffffffffffff1681565b6000600260008373ffffffffffffffffffffffffffffffffffffffff1673ffffffffffffffffffffffffffffffffffffffff168152602001908152602001600020549050919050565b80600260003373ffffffffffffffffffffffffffffffffffffffff1673ffffffffffffffffffffffffffffffffffffffff168152602001908152602001600020541015151561062c576040517f08c379a00000000000000000000000000000000000000000000000000000000081526004018080602001828103825260228152602001807f4e6f742073756666696369656e7420776869746520746f6b656e20746f20736581526020017f6c6c00000000000000000000000000000000000000000000000000000000000081525060400191505060405180910390fd5b80600360008473ffffffffffffffffffffffffffffffffffffffff1673ffffffffffffffffffffffffffffffffffffffff1681526020019081526020016000205410151515610709576040517f08c379a000000000000000000000000000000000000000000000000000000000815260040180806020018281038252602f8152602001807f4e6f742073756666696369656e7420426c61636b20746f6b656e20746f20726581526020017f6369657665207768697465636f696e000000000000000000000000000000000081525060400191505060405180910390fd5b61075b81600260003373ffffffffffffffffffffffffffffffffffffffff1673ffffffffffffffffffffffffffffffffffffffff1681526020019081526020016000205461085590919063ffffffff16565b600260003373ffffffffffffffffffffffffffffffffffffffff1673ffffffffffffffffffffffffffffffffffffffff168152602001908152602001600020819055506107f081600360008573ffffffffffffffffffffffffffffffffffffffff1673ffffffffffffffffffffffffffffffffffffffff1681526020019081526020016000205461085590919063ffffffff16565b600360008473ffffffffffffffffffffffffffffffffffffffff1673ffffffffffffffffffffffffffffffffffffffff168152602001908152602001600020819055505050565b600080828401905061084b8482101561086e565b8091505092915050565b60006108638383111561086e565b818303905092915050565b80151561087a57600080fd5b505600a165627a7a72305820cb2b8b783a4669a859874eaf6fbe77455e5ce5428b1a9ddbfb46d151f36183ec0029",
  "source": "pragma solidity ^0.4.11;\n\nimport './NotgivingEth_interface.sol';\nimport './SafeMath.sol';\n\n\ncontract NotGivingEthToken is NotGivingEthInterface {\n    address public owner = msg.sender;\n    using SafeMath for uint;\n\n    mapping(address => uint) whitebalance;\n    mapping(address => uint) blackbalance;\n\n    //this will be called by owner, in our case trading ui\n    function transferWhiteCoin(address _sellto, uint _value){\n      //Burn white token of sellfrom\n      //Burn Black Token of sellTo\n      require(whitebalance[msg.sender] >= _value ,'Not sufficient white token to sell');\n      require(blackbalance[_sellto] >= _value ,'Not sufficient Black token to recieve whitecoin');\n      whitebalance[msg.sender] = whitebalance[msg.sender].sub(_value);\n      blackbalance[_sellto] = blackbalance[_sellto].sub(_value);\n\n    }\n\n    //only owner can call, called from dapp\n    function spot(address _victim, address _spammer, uint _value) {\n        require(msg.sender == owner);\n        whitebalance[_victim] = whitebalance[_victim].add(_value);\n        blackbalance[_spammer] = blackbalance[_spammer].add(_value);\n        emit SpottedSpam(_victim, _spammer, _value);\n    }\n\n    // send balance of black token, for wallets\n    function balanceOf(address _owner) constant returns (uint balance) {\n        return blackbalance[_owner];\n    }\n\n    // send balance of while token, for dapp\n    function balanceOfWhite(address _owner) constant returns (uint balance) {\n        return whitebalance[_owner];\n    }\n}\n",
  "sourcePath": "/Users/nickyg/Documents/workspace/src/github.com/niktrix/notgivingeth/contracts/NotGivingEthToken.sol",
  "compiler": {
    "name": "solc",
    "version": "0.4.24+commit.e67f0147.Emscripten.clang"
  },
  "schemaVersion": "2.0.1",
  "updatedAt": "2018-07-13T13:29:44.569Z"
}