{
  "contractName": "NotGivingEthToken",
  "abi": [
    {
      "constant": true,
      "inputs": [],
      "name": "signerCount",
      "outputs": [
        {
          "name": "",
          "type": "uint256"
        }
      ],
      "payable": false,
      "stateMutability": "view",
      "type": "function"
    },
    {
      "constant": true,
      "inputs": [
        {
          "name": "",
          "type": "address"
        }
      ],
      "name": "lastBlock",
      "outputs": [
        {
          "name": "",
          "type": "uint256"
        }
      ],
      "payable": false,
      "stateMutability": "view",
      "type": "function"
    },
    {
      "constant": true,
      "inputs": [],
      "name": "state",
      "outputs": [
        {
          "name": "",
          "type": "uint8"
        }
      ],
      "payable": false,
      "stateMutability": "view",
      "type": "function"
    },
    {
      "inputs": [],
      "payable": false,
      "stateMutability": "nonpayable",
      "type": "constructor"
    },
    {
      "anonymous": false,
      "inputs": [
        {
          "indexed": true,
          "name": "_sellto",
          "type": "address"
        },
        {
          "indexed": false,
          "name": "_value",
          "type": "uint256"
        }
      ],
      "name": "TransferWhiteCoin",
      "type": "event"
    },
    {
      "anonymous": false,
      "inputs": [
        {
          "indexed": true,
          "name": "_victim",
          "type": "address"
        },
        {
          "indexed": true,
          "name": "_spammer",
          "type": "address"
        },
        {
          "indexed": false,
          "name": "_value",
          "type": "uint256"
        }
      ],
      "name": "SpotSubmitted",
      "type": "event"
    },
    {
      "anonymous": false,
      "inputs": [
        {
          "indexed": true,
          "name": "_signer",
          "type": "address"
        },
        {
          "indexed": true,
          "name": "_victim",
          "type": "address"
        },
        {
          "indexed": false,
          "name": "_value",
          "type": "uint256"
        }
      ],
      "name": "SpotApproved",
      "type": "event"
    },
    {
      "anonymous": false,
      "inputs": [
        {
          "indexed": true,
          "name": "_owner",
          "type": "address"
        }
      ],
      "name": "BalanceOf",
      "type": "event"
    },
    {
      "anonymous": false,
      "inputs": [
        {
          "indexed": true,
          "name": "_owner",
          "type": "address"
        }
      ],
      "name": "BalanceOfWhite",
      "type": "event"
    },
    {
      "anonymous": false,
      "inputs": [
        {
          "indexed": false,
          "name": "victim",
          "type": "address"
        },
        {
          "indexed": false,
          "name": "spammer",
          "type": "address"
        },
        {
          "indexed": false,
          "name": "value",
          "type": "uint256"
        }
      ],
      "name": "SpottedSpam",
      "type": "event"
    },
    {
      "constant": true,
      "inputs": [],
      "name": "getSigners",
      "outputs": [
        {
          "name": "",
          "type": "address[]"
        }
      ],
      "payable": false,
      "stateMutability": "view",
      "type": "function"
    },
    {
      "constant": false,
      "inputs": [
        {
          "name": "_sellto",
          "type": "address"
        },
        {
          "name": "_value",
          "type": "uint256"
        }
      ],
      "name": "transferWhiteCoin",
      "outputs": [],
      "payable": false,
      "stateMutability": "nonpayable",
      "type": "function"
    },
    {
      "constant": false,
      "inputs": [
        {
          "name": "_spammer",
          "type": "address"
        },
        {
          "name": "_value",
          "type": "uint256"
        }
      ],
      "name": "spotByUser",
      "outputs": [],
      "payable": false,
      "stateMutability": "nonpayable",
      "type": "function"
    },
    {
      "constant": false,
      "inputs": [
        {
          "name": "_victim",
          "type": "address"
        }
      ],
      "name": "approve",
      "outputs": [],
      "payable": false,
      "stateMutability": "nonpayable",
      "type": "function"
    },
    {
      "constant": true,
      "inputs": [],
      "name": "listOpenVictims",
      "outputs": [
        {
          "name": "",
          "type": "address[]"
        }
      ],
      "payable": false,
      "stateMutability": "view",
      "type": "function"
    },
    {
      "constant": false,
      "inputs": [
        {
          "name": "_owner",
          "type": "address"
        }
      ],
      "name": "balanceOf",
      "outputs": [
        {
          "name": "balance",
          "type": "uint256"
        }
      ],
      "payable": false,
      "stateMutability": "nonpayable",
      "type": "function"
    },
    {
      "constant": false,
      "inputs": [
        {
          "name": "_owner",
          "type": "address"
        }
      ],
      "name": "balanceOfWhite",
      "outputs": [
        {
          "name": "balance",
          "type": "uint256"
        }
      ],
      "payable": false,
      "stateMutability": "nonpayable",
      "type": "function"
    },
    {
      "constant": false,
      "inputs": [],
      "name": "getBN",
      "outputs": [
        {
          "name": "",
          "type": "uint256"
        }
      ],
      "payable": false,
      "stateMutability": "nonpayable",
      "type": "function"
    }
  ],
  "bytecode": "0x608060405260006005553480156200001657600080fd5b5033600660006101000a81548173ffffffffffffffffffffffffffffffffffffffff021916908373ffffffffffffffffffffffffffffffffffffffff160217905550600160008073d6a2af5f1622b0a25a346a7b048c1dc25e0012fc73ffffffffffffffffffffffffffffffffffffffff1673ffffffffffffffffffffffffffffffffffffffff16815260200190815260200160002060006101000a81548160ff021916908315150217905550620000e96001600554620006c46401000000000262001981179091906401000000009004565b600581905550600160008073e504e82e9b335e600837c0acf74bb233b888c8ec73ffffffffffffffffffffffffffffffffffffffff1673ffffffffffffffffffffffffffffffffffffffff16815260200190815260200160002060006101000a81548160ff021916908315150217905550620001806001600554620006c46401000000000262001981179091906401000000009004565b600581905550600160008073011756c887d37dbb3d06e442c1113abdbc98e36e73ffffffffffffffffffffffffffffffffffffffff1673ffffffffffffffffffffffffffffffffffffffff16815260200190815260200160002060006101000a81548160ff021916908315150217905550620002176001600554620006c46401000000000262001981179091906401000000009004565b600581905550600160008073ae120c0a38c622b62ce505e0349ab27ced036e5d73ffffffffffffffffffffffffffffffffffffffff1673ffffffffffffffffffffffffffffffffffffffff16815260200190815260200160002060006101000a81548160ff021916908315150217905550620002ae6001600554620006c46401000000000262001981179091906401000000009004565b600581905550600160008073d296e44f382bc0f6c2b1ddbdb03551e509635f1f73ffffffffffffffffffffffffffffffffffffffff1673ffffffffffffffffffffffffffffffffffffffff16815260200190815260200160002060006101000a81548160ff021916908315150217905550620003456001600554620006c46401000000000262001981179091906401000000009004565b60058190555060016000807344c46ed496b94fafe8a81b9ab93b27935fca160373ffffffffffffffffffffffffffffffffffffffff1673ffffffffffffffffffffffffffffffffffffffff16815260200190815260200160002060006101000a81548160ff021916908315150217905550620003dc6001600554620006c46401000000000262001981179091906401000000009004565b600581905550600773d6a2af5f1622b0a25a346a7b048c1dc25e0012fc90806001815401808255809150509060018203906000526020600020016000909192909190916101000a81548173ffffffffffffffffffffffffffffffffffffffff021916908373ffffffffffffffffffffffffffffffffffffffff16021790555050600773e504e82e9b335e600837c0acf74bb233b888c8ec90806001815401808255809150509060018203906000526020600020016000909192909190916101000a81548173ffffffffffffffffffffffffffffffffffffffff021916908373ffffffffffffffffffffffffffffffffffffffff16021790555050600773011756c887d37dbb3d06e442c1113abdbc98e36e90806001815401808255809150509060018203906000526020600020016000909192909190916101000a81548173ffffffffffffffffffffffffffffffffffffffff021916908373ffffffffffffffffffffffffffffffffffffffff16021790555050600773ae120c0a38c622b62ce505e0349ab27ced036e5d90806001815401808255809150509060018203906000526020600020016000909192909190916101000a81548173ffffffffffffffffffffffffffffffffffffffff021916908373ffffffffffffffffffffffffffffffffffffffff16021790555050600773d296e44f382bc0f6c2b1ddbdb03551e509635f1f90806001815401808255809150509060018203906000526020600020016000909192909190916101000a81548173ffffffffffffffffffffffffffffffffffffffff021916908373ffffffffffffffffffffffffffffffffffffffff1602179055505060077344c46ed496b94fafe8a81b9ab93b27935fca160390806001815401808255809150509060018203906000526020600020016000909192909190916101000a81548173ffffffffffffffffffffffffffffffffffffffff021916908373ffffffffffffffffffffffffffffffffffffffff16021790555050620006e1565b60008183019050828110151515620006d857fe5b80905092915050565b611c1880620006f16000396000f3006080604052600436106100af576000357c0100000000000000000000000000000000000000000000000000000000900463ffffffff16806370a08231146100b45780637ca548c61461010b5780637cc3df711461013657806390c7bc5f146101a257806394cf795e146101cd578063952ca92c1461023957806396bb97dc14610290578063c19d93fb146102dd578063ce07632714610316578063cedca41b1461036d578063daea85c5146103ba575b600080fd5b3480156100c057600080fd5b506100f5600480360381019080803573ffffffffffffffffffffffffffffffffffffffff1690602001909291905050506103fd565b6040518082815260200191505060405180910390f35b34801561011757600080fd5b5061012061065a565b6040518082815260200191505060405180910390f35b34801561014257600080fd5b5061014b610660565b6040518080602001828103825283818151815260200191508051906020019060200280838360005b8381101561018e578082015181840152602081019050610173565b505050509050019250505060405180910390f35b3480156101ae57600080fd5b506101b76106ee565b6040518082815260200191505060405180910390f35b3480156101d957600080fd5b506101e26106f6565b6040518080602001828103825283818151815260200191508051906020019060200280838360005b8381101561022557808201518184015260208101905061020a565b505050509050019250505060405180910390f35b34801561024557600080fd5b5061027a600480360381019080803573ffffffffffffffffffffffffffffffffffffffff169060200190929190505050610784565b6040518082815260200191505060405180910390f35b34801561029c57600080fd5b506102db600480360381019080803573ffffffffffffffffffffffffffffffffffffffff1690602001909291908035906020019092919050505061079c565b005b3480156102e957600080fd5b506102f2610b18565b6040518082600181111561030257fe5b60ff16815260200191505060405180910390f35b34801561032257600080fd5b50610357600480360381019080803573ffffffffffffffffffffffffffffffffffffffff169060200190929190505050610b2b565b6040518082815260200191505060405180910390f35b34801561037957600080fd5b506103b8600480360381019080803573ffffffffffffffffffffffffffffffffffffffff16906020019092919080359060200190929190505050610d88565b005b3480156103c657600080fd5b506103fb600480360381019080803573ffffffffffffffffffffffffffffffffffffffff1690602001909291905050506110be565b005b600080600073ffffffffffffffffffffffffffffffffffffffff168373ffffffffffffffffffffffffffffffffffffffff16141515156104cb576040517f08c379a00000000000000000000000000000000000000000000000000000000081526004018080602001828103825260258152602001807f42616c616e6365206f662061646472657373283029206973206e6f7420706f7381526020017f7369626c6500000000000000000000000000000000000000000000000000000081525060400191505060405180910390fd5b600460008473ffffffffffffffffffffffffffffffffffffffff1673ffffffffffffffffffffffffffffffffffffffff16815260200190815260200160002090508060040160008473ffffffffffffffffffffffffffffffffffffffff1673ffffffffffffffffffffffffffffffffffffffff16815260200190815260200160002060009054906101000a900460ff1615156105cf576040517f08c379a00000000000000000000000000000000000000000000000000000000081526004018080602001828103825260168152602001807f50726f706f73616c206e6f7420617070726f7665642e0000000000000000000081525060200191505060405180910390fd5b8273ffffffffffffffffffffffffffffffffffffffff167fd996788951f1f44b7a7523f1f9a9ebfbcb1e816dc7a6bd17b8930da3cd13984260405160405180910390a2600260008473ffffffffffffffffffffffffffffffffffffffff1673ffffffffffffffffffffffffffffffffffffffff16815260200190815260200160002054915050919050565b60055481565b606060088054806020026020016040519081016040528092919081815260200182805480156106e457602002820191906000526020600020905b8160009054906101000a900473ffffffffffffffffffffffffffffffffffffffff1673ffffffffffffffffffffffffffffffffffffffff168152602001906001019080831161069a575b5050505050905090565b600043905090565b6060600780548060200260200160405190810160405280929190818152602001828054801561077a57602002820191906000526020600020905b8160009054906101000a900473ffffffffffffffffffffffffffffffffffffffff1673ffffffffffffffffffffffffffffffffffffffff1681526020019060010190808311610730575b5050505050905090565b60036020528060005260406000206000915090505481565b6107a4611b46565b600073ffffffffffffffffffffffffffffffffffffffff163373ffffffffffffffffffffffffffffffffffffffff1614151515610849576040517f08c379a000000000000000000000000000000000000000000000000000000000815260040180806020018281038252601b8152602001807f56696374696d2063616e6e6f742062652061646472657373283029000000000081525060200191505060405180910390fd5b600073ffffffffffffffffffffffffffffffffffffffff168373ffffffffffffffffffffffffffffffffffffffff16141515156108ee576040517f08c379a000000000000000000000000000000000000000000000000000000000815260040180806020018281038252601c8152602001807f5370616d6d65722063616e6e6f7420626520616464726573732830290000000081525060200191505060405180910390fd5b6000600960006101000a81548160ff0219169083600181111561090d57fe5b02179055506080604051908101604052803373ffffffffffffffffffffffffffffffffffffffff1681526020018473ffffffffffffffffffffffffffffffffffffffff1681526020018381526020016000815250905080600460003373ffffffffffffffffffffffffffffffffffffffff1673ffffffffffffffffffffffffffffffffffffffff16815260200190815260200160002060008201518160000160006101000a81548173ffffffffffffffffffffffffffffffffffffffff021916908373ffffffffffffffffffffffffffffffffffffffff16021790555060208201518160010160006101000a81548173ffffffffffffffffffffffffffffffffffffffff021916908373ffffffffffffffffffffffffffffffffffffffff160217905550604082015181600201556060820151816003015590505060083390806001815401808255809150509060018203906000526020600020016000909192909190916101000a81548173ffffffffffffffffffffffffffffffffffffffff021916908373ffffffffffffffffffffffffffffffffffffffff160217905550508273ffffffffffffffffffffffffffffffffffffffff163373ffffffffffffffffffffffffffffffffffffffff167fa53f51a311b08a905e6c29e2769f49af93eef479d79e38317ca23daa5be5b7de846040518082815260200191505060405180910390a3505050565b600960009054906101000a900460ff1681565b600080600073ffffffffffffffffffffffffffffffffffffffff168373ffffffffffffffffffffffffffffffffffffffff1614151515610bf9576040517f08c379a00000000000000000000000000000000000000000000000000000000081526004018080602001828103825260258152602001807f42616c616e6365206f662061646472657373283029206973206e6f7420706f7381526020017f7369626c6500000000000000000000000000000000000000000000000000000081525060400191505060405180910390fd5b600460008473ffffffffffffffffffffffffffffffffffffffff1673ffffffffffffffffffffffffffffffffffffffff16815260200190815260200160002090508060040160008473ffffffffffffffffffffffffffffffffffffffff1673ffffffffffffffffffffffffffffffffffffffff16815260200190815260200160002060009054906101000a900460ff161515610cfd576040517f08c379a00000000000000000000000000000000000000000000000000000000081526004018080602001828103825260168152602001807f50726f706f73616c206e6f7420617070726f7665642e0000000000000000000081525060200191505060405180910390fd5b8273ffffffffffffffffffffffffffffffffffffffff167f4109acafb8752a9e0f3faaffb4ffc773e497667f94b4d9bc37c758cda785152560405160405180910390a2600160008473ffffffffffffffffffffffffffffffffffffffff1673ffffffffffffffffffffffffffffffffffffffff16815260200190815260200160002054915050919050565b80600160003373ffffffffffffffffffffffffffffffffffffffff1673ffffffffffffffffffffffffffffffffffffffff1681526020019081526020016000205410151515610e65576040517f08c379a00000000000000000000000000000000000000000000000000000000081526004018080602001828103825260218152602001807f4e6f742073756666696369656e7420576869746520636f696e20746f2073656c81526020017f6c0000000000000000000000000000000000000000000000000000000000000081525060400191505060405180910390fd5b80600260008473ffffffffffffffffffffffffffffffffffffffff1673ffffffffffffffffffffffffffffffffffffffff1681526020019081526020016000205410151515610f42576040517f08c379a000000000000000000000000000000000000000000000000000000000815260040180806020018281038252602f8152602001807f4e6f742073756666696369656e7420426c61636b20636f696e20746f2072656381526020017f6569766520576869746520636f696e000000000000000000000000000000000081525060400191505060405180910390fd5b610f9481600160003373ffffffffffffffffffffffffffffffffffffffff1673ffffffffffffffffffffffffffffffffffffffff1681526020019081526020016000205461196890919063ffffffff16565b600160003373ffffffffffffffffffffffffffffffffffffffff1673ffffffffffffffffffffffffffffffffffffffff1681526020019081526020016000208190555061102981600260008573ffffffffffffffffffffffffffffffffffffffff1673ffffffffffffffffffffffffffffffffffffffff1681526020019081526020016000205461196890919063ffffffff16565b600260008473ffffffffffffffffffffffffffffffffffffffff1673ffffffffffffffffffffffffffffffffffffffff168152602001908152602001600020819055508173ffffffffffffffffffffffffffffffffffffffff167f565bf6a306768d86406bc33aa75aa65f03f8a413d0c6593ff54ca0175fb20f05826040518082815260200191505060405180910390a25050565b60008060003373ffffffffffffffffffffffffffffffffffffffff1673ffffffffffffffffffffffffffffffffffffffff16815260200190815260200160002060009054906101000a900460ff161515611180576040517f08c379a00000000000000000000000000000000000000000000000000000000081526004018080602001828103825260178152602001807f596f7520617265206e6f742061207369676e657221212100000000000000000081525060200191505060405180910390fd5b600080600181111561118e57fe5b600960009054906101000a900460ff1660018111156111a957fe5b141515611244576040517f08c379a00000000000000000000000000000000000000000000000000000000081526004018080602001828103825260348152602001807f506c6561736520636865636b207468652072657175697265642073746174652081526020017f666f72207468697320616374697669747921212100000000000000000000000081525060400191505060405180910390fd5b600460008473ffffffffffffffffffffffffffffffffffffffff1673ffffffffffffffffffffffffffffffffffffffff16815260200190815260200160002091508160040160003373ffffffffffffffffffffffffffffffffffffffff1673ffffffffffffffffffffffffffffffffffffffff16815260200190815260200160002060009054906101000a900460ff16151515611349576040517f08c379a000000000000000000000000000000000000000000000000000000000815260040180806020018281038252601c8152602001807f596f752063616e20617070726f7665206f6e6c79206f6e63652121210000000081525060200191505060405180910390fd5b6113616001836003015461198190919063ffffffff16565b8260030181905550600382600301541015156118d6576000600360008573ffffffffffffffffffffffffffffffffffffffff1673ffffffffffffffffffffffffffffffffffffffff168152602001908152602001600020541415156114ae57436114386005600360008660000160009054906101000a900473ffffffffffffffffffffffffffffffffffffffff1673ffffffffffffffffffffffffffffffffffffffff1673ffffffffffffffffffffffffffffffffffffffff1681526020019081526020016000205461198190919063ffffffff16565b1015156114ad576040517f08c379a000000000000000000000000000000000000000000000000000000000815260040180806020018281038252601b8152602001807f416c6c6f776564206f6e6c79206576657279203520626c6f636b73000000000081525060200191505060405180910390fd5b5b8160010160009054906101000a900473ffffffffffffffffffffffffffffffffffffffff1673ffffffffffffffffffffffffffffffffffffffff168260000160009054906101000a900473ffffffffffffffffffffffffffffffffffffffff1673ffffffffffffffffffffffffffffffffffffffff161415611623576115b760026115a98460020154600260008760010160009054906101000a900473ffffffffffffffffffffffffffffffffffffffff1673ffffffffffffffffffffffffffffffffffffffff1673ffffffffffffffffffffffffffffffffffffffff1681526020019081526020016000205461198190919063ffffffff16565b61199d90919063ffffffff16565b600260008460010160009054906101000a900473ffffffffffffffffffffffffffffffffffffffff1673ffffffffffffffffffffffffffffffffffffffff1673ffffffffffffffffffffffffffffffffffffffff168152602001908152602001600020819055506117e6565b61169d8260020154600160008560000160009054906101000a900473ffffffffffffffffffffffffffffffffffffffff1673ffffffffffffffffffffffffffffffffffffffff1673ffffffffffffffffffffffffffffffffffffffff1681526020019081526020016000205461198190919063ffffffff16565b600160008460000160009054906101000a900473ffffffffffffffffffffffffffffffffffffffff1673ffffffffffffffffffffffffffffffffffffffff1673ffffffffffffffffffffffffffffffffffffffff1681526020019081526020016000208190555061177e8260020154600260008560010160009054906101000a900473ffffffffffffffffffffffffffffffffffffffff1673ffffffffffffffffffffffffffffffffffffffff1673ffffffffffffffffffffffffffffffffffffffff1681526020019081526020016000205461198190919063ffffffff16565b600260008460010160009054906101000a900473ffffffffffffffffffffffffffffffffffffffff1673ffffffffffffffffffffffffffffffffffffffff1673ffffffffffffffffffffffffffffffffffffffff168152602001908152602001600020819055505b43600360008460000160009054906101000a900473ffffffffffffffffffffffffffffffffffffffff1673ffffffffffffffffffffffffffffffffffffffff1673ffffffffffffffffffffffffffffffffffffffff1681526020019081526020016000208190555061187b8260000160009054906101000a900473ffffffffffffffffffffffffffffffffffffffff166119d5565b60018260040160003373ffffffffffffffffffffffffffffffffffffffff1673ffffffffffffffffffffffffffffffffffffffff16815260200190815260200160002060006101000a81548160ff0219169083151502179055505b8160000160009054906101000a900473ffffffffffffffffffffffffffffffffffffffff1673ffffffffffffffffffffffffffffffffffffffff163373ffffffffffffffffffffffffffffffffffffffff167f8286bb6f0deb5f73a5841c2754b67f9420b92ffac7227baf4441676c83cbec4684600201546040518082815260200191505060405180910390a3505050565b600082821115151561197657fe5b818303905092915050565b6000818301905082811015151561199457fe5b80905092915050565b6000808314156119b057600090506119cf565b81830290508183828115156119c157fe5b041415156119cb57fe5b8090505b92915050565b60006119e0826119ef565b90506119eb81611a7b565b5050565b600080600090505b8273ffffffffffffffffffffffffffffffffffffffff16600882815481101515611a1d57fe5b9060005260206000200160009054906101000a900473ffffffffffffffffffffffffffffffffffffffff1673ffffffffffffffffffffffffffffffffffffffff16141515611a725780806001019150506119f7565b80915050919050565b5b600160088054905003811015611b2d57600860018201815481101515611a9e57fe5b9060005260206000200160009054906101000a900473ffffffffffffffffffffffffffffffffffffffff16600882815481101515611ad857fe5b9060005260206000200160006101000a81548173ffffffffffffffffffffffffffffffffffffffff021916908373ffffffffffffffffffffffffffffffffffffffff1602179055508080600101915050611a7c565b6008805480919060019003611b429190611b9b565b5050565b608060405190810160405280600073ffffffffffffffffffffffffffffffffffffffff168152602001600073ffffffffffffffffffffffffffffffffffffffff16815260200160008152602001600081525090565b815481835581811115611bc257818360005260206000209182019101611bc19190611bc7565b5b505050565b611be991905b80821115611be5576000816000905550600101611bcd565b5090565b905600a165627a7a7230582094bc2fa22a53368f34368034fc6b709f93e05c26523278328eac3055d1af15aa0029",
  "source": "pragma solidity ^0.4.24;\n\nimport './NotgivingEth_interface.sol';\nimport './SafeMath.sol';\n\ncontract NotGivingEthToken is NotGivingEthInterface {\n    using SafeMath for uint;\n\n    mapping(address => bool) private signersList;\n    \n    mapping(address => uint) private whiteBalance;\n    mapping(address => uint) private blackBalance;\n    mapping(address => uint) public lastBlock;\n    mapping(address => SubmittedProposal) private proposals;\n\n    event TransferWhiteCoin(address indexed _sellto, uint _value);\n    event SpotSubmitted(address indexed _victim, address indexed _spammer, uint _value);\n    event SpotApproved(address indexed _signer, address indexed _victim, uint _value);\n    \n    event BalanceOf(address indexed _owner);\n    event BalanceOfWhite(address indexed _owner);\n    \n    uint public signerCount = 0;\n    address private contractOwner;\n    address[] private signersArray;\n    address[] private openVictimList;\n    \n    enum SpotState {\n        Open,\n        Close\n    }\n\n    struct SubmittedProposal {\n        address victim;\n        address spammer;\n        uint amountRequested;\n        uint approvalCount;\n        mapping(address => bool) approvals;\n    }\n    \n    SpotState public state;\n\n    modifier isSigner() {\n        require(signersList[msg.sender],\"You are not a signer!!!\");\n        _;\n    }\n    \n    modifier inState(SpotState _state) {\n        require(state == _state, \"Please check the required state for this activity!!!\");\n        _;\n    }\n    \n    constructor () public {\n        contractOwner = msg.sender;\n\n/*\n        for(uint i=0; i<signers.length;i++) {\n            signersList[address(signers[i])] = true; signerCount = signerCount.add(1);\n            signersArray.push(signers[i]);\n        }\n*/        \n        signersList[address(0xd6a2Af5F1622b0A25A346A7b048c1dc25e0012Fc)] = true; signerCount = signerCount.add(1);\n        signersList[address(0xE504E82E9B335e600837C0acf74Bb233b888c8Ec)] = true; signerCount = signerCount.add(1);\n        signersList[address(0x011756c887D37dBb3d06E442c1113ABDBC98e36E)] = true; signerCount = signerCount.add(1);\n        signersList[address(0xAE120c0a38c622B62ce505e0349ab27Ced036e5d)] = true; signerCount = signerCount.add(1);\n        signersList[address(0xD296e44f382BC0F6c2B1DdBdB03551E509635f1f)] = true; signerCount = signerCount.add(1);\n        signersList[address(0x44c46Ed496B94fafE8A81b9Ab93B27935fcA1603)] = true; signerCount = signerCount.add(1);\n \n        signersArray.push(0xd6a2Af5F1622b0A25A346A7b048c1dc25e0012Fc);\n        signersArray.push(0xE504E82E9B335e600837C0acf74Bb233b888c8Ec);\n        signersArray.push(0x011756c887D37dBb3d06E442c1113ABDBC98e36E);\n        signersArray.push(0xAE120c0a38c622B62ce505e0349ab27Ced036e5d);\n        signersArray.push(0xD296e44f382BC0F6c2B1DdBdB03551E509635f1f);\n        signersArray.push(0x44c46Ed496B94fafE8A81b9Ab93B27935fcA1603);\n /*\n  //my test in remix to be removed\n        signersList[address(0x00dd870fa1b7c4700f2bd7f44238821c26f7392148)] = true; signerCount = signerCount.add(1);\n        signersList[address(0x00583031d1113ad414f02576bd6afabfb302140225)] = true; signerCount = signerCount.add(1);\n        signersList[address(0x004b0897b0513fdc7c541b6d9d7e929c4e5364d2db)] = true; signerCount = signerCount.add(1);\n  */  \n    }\n\n    function getSigners() public view returns(address[]) {\n        return signersArray;\n    }\n    \n    //this will be called by owner, in our case trading ui\n    function transferWhiteCoin(address _sellto, uint _value) public {\n      //Burn white token of sellfrom\n      //Burn Black Token of sellTo\n      require(whiteBalance[msg.sender] >= _value ,\"Not sufficient White coin to sell\");\n      require(blackBalance[_sellto] >= _value ,\"Not sufficient Black coin to receive White coin\");\n      whiteBalance[msg.sender] = whiteBalance[msg.sender].sub(_value);\n      blackBalance[_sellto] = blackBalance[_sellto].sub(_value);\n      \n      emit TransferWhiteCoin(_sellto, _value);\n    }\n\n/*\n    //only owner can call, called from dapp\n    function spot(address _victim, address _spammer, uint _value) public {\n        require(_victim != address(0),\"Victim cannot be address(0)\");\n        require(_spammer != address(0),\"Spammer cannot be address(0)\");\n        \n        state = SpotState.Open;\n        \n        SubmittedProposal memory newProposal = SubmittedProposal({\n           victim: _victim,\n           spammer: _spammer,\n           amountRequested: _value,\n           approvalCount: 0\n        });\n        \n        proposals[_victim] = newProposal;\n        openVictimList.push(_victim);\n         \n        emit SpotSubmitted(_victim, _spammer, _value);\n    }\n*/    \n        //only owner can call, called from dapp\n    function spotByUser(address _spammer, uint _value) public {\n        require(msg.sender != address(0),\"Victim cannot be address(0)\");\n        require(_spammer != address(0),\"Spammer cannot be address(0)\");\n        \n        state = SpotState.Open;\n        \n        SubmittedProposal memory newProposal = SubmittedProposal({\n           victim: msg.sender,\n           spammer: _spammer,\n           amountRequested: _value,\n           approvalCount: 0\n        });\n        \n        proposals[msg.sender] = newProposal;\n        openVictimList.push(msg.sender);\n         \n        emit SpotSubmitted(msg.sender, _spammer, _value);\n    }\n\n    function approve(address _victim) public isSigner inState(SpotState.Open) {\n        SubmittedProposal storage aProposal = proposals[_victim];\n\n        require(!aProposal.approvals[msg.sender],\"You can approve only once!!!\");\n        aProposal.approvalCount = aProposal.approvalCount.add(1);\n        \n        if(aProposal.approvalCount >= 3) {\n                            \n            if(lastBlock[_victim] != 0) {\n                //dont allow to spot transaction for 5000 block passed\n                require(lastBlock[aProposal.victim].add(5) < block.number,\"Allowed only every 5 blocks\");\n            }\n            \n            if(aProposal.victim == aProposal.spammer) {\n                blackBalance[aProposal.spammer] = blackBalance[aProposal.spammer].add(aProposal.amountRequested).mul(2);\n            } else {\n                whiteBalance[aProposal.victim] = whiteBalance[aProposal.victim].add(aProposal.amountRequested);\n                blackBalance[aProposal.spammer] = blackBalance[aProposal.spammer].add(aProposal.amountRequested);    \n            }\n            \n            lastBlock[aProposal.victim] = block.number;\n            removeByValue(aProposal.victim);\n            aProposal.approvals[msg.sender] = true;\n        }\n            \n        emit SpotApproved(msg.sender, aProposal.victim, aProposal.amountRequested);\n    }\n\n    function listOpenVictims() public view returns (address[]) {\n         return openVictimList;\n    }\n    \n    // send balance of black token, for wallets\n    function balanceOf(address _owner) public returns (uint balance) {\n        require(_owner != address(0),\"Balance of address(0) is not possible\");\n        SubmittedProposal storage getProp = proposals[_owner];\n        \n        require(getProp.approvals[_owner],\"Proposal not approved.\");\n        \n        emit BalanceOf(_owner);\n        \n        return blackBalance[_owner];\n    }\n\n    // send balance of while token, for dapp\n    function balanceOfWhite(address _owner) public returns (uint balance) {\n        require(_owner != address(0),\"Balance of address(0) is not possible\");\n        \n        SubmittedProposal storage getProp = proposals[_owner];\n        \n        require(getProp.approvals[_owner],\"Proposal not approved.\");\n        \n        emit BalanceOfWhite(_owner);\n        \n        return whiteBalance[_owner];\n    }\n    \n    function getBN() returns(uint) {\n        return block.number;\n    }\n    \n      // functions for listOpenBeneficiariesProposals\n    function find(address _addr) private view returns(uint) {\n        uint i = 0;\n        while (openVictimList[i] != _addr) {\n            i++;\n        }\n        return i;\n    }\n\n    function removeByIndex(uint i) private {\n        while (i<openVictimList.length-1) {\n            openVictimList[i] = openVictimList[i+1];\n            i++;\n        }\n        openVictimList.length--;\n    }\n\n    function removeByValue(address _addr) private {\n        uint i = find(_addr);\n        removeByIndex(i);\n    }\n}\n",
  "sourcePath": "/Users/nickyg/Documents/workspace/src/github.com/niktrix/notgivingeth/contracts/NotGivingEthToken.sol",
  "compiler": {
    "name": "solc",
    "version": "0.4.24+commit.e67f0147.Emscripten.clang"
  },
  "schemaVersion": "2.0.1",
  "updatedAt": "2018-07-14T12:07:58.967Z"
}